{
  "_format": "hh-sol-artifact-1",
  "contractName": "TokenBoundAccount",
  "sourceName": "contracts/TokenBoundAccount.sol",
  "abi": [
    {
      "anonymous": false,
      "inputs": [
        {
          "indexed": true,
          "internalType": "address",
          "name": "target",
          "type": "address"
        },
        {
          "indexed": true,
          "internalType": "uint256",
          "name": "value",
          "type": "uint256"
        },
        {
          "indexed": false,
          "internalType": "bytes",
          "name": "data",
          "type": "bytes"
        }
      ],
      "name": "TransactionExecuted",
      "type": "event"
    },
    {
      "inputs": [],
      "name": "balance",
      "outputs": [
        {
          "internalType": "uint256",
          "name": "",
          "type": "uint256"
        }
      ],
      "stateMutability": "view",
      "type": "function"
    },
    {
      "inputs": [
        {
          "internalType": "address",
          "name": "to",
          "type": "address"
        },
        {
          "internalType": "uint256",
          "name": "value",
          "type": "uint256"
        },
        {
          "internalType": "bytes",
          "name": "data",
          "type": "bytes"
        }
      ],
      "name": "executeCall",
      "outputs": [
        {
          "internalType": "bytes",
          "name": "result",
          "type": "bytes"
        }
      ],
      "stateMutability": "payable",
      "type": "function"
    },
    {
      "inputs": [
        {
          "internalType": "bytes32",
          "name": "hash",
          "type": "bytes32"
        },
        {
          "internalType": "bytes",
          "name": "signature",
          "type": "bytes"
        }
      ],
      "name": "isValidSignature",
      "outputs": [
        {
          "internalType": "bytes4",
          "name": "magicValue",
          "type": "bytes4"
        }
      ],
      "stateMutability": "view",
      "type": "function"
    },
    {
      "inputs": [],
      "name": "nonce",
      "outputs": [
        {
          "internalType": "uint256",
          "name": "",
          "type": "uint256"
        }
      ],
      "stateMutability": "view",
      "type": "function"
    },
    {
      "inputs": [],
      "name": "owner",
      "outputs": [
        {
          "internalType": "address",
          "name": "",
          "type": "address"
        }
      ],
      "stateMutability": "view",
      "type": "function"
    },
    {
      "inputs": [
        {
          "internalType": "bytes4",
          "name": "interfaceId",
          "type": "bytes4"
        }
      ],
      "name": "supportsInterface",
      "outputs": [
        {
          "internalType": "bool",
          "name": "",
          "type": "bool"
        }
      ],
      "stateMutability": "pure",
      "type": "function"
    },
    {
      "inputs": [],
      "name": "token",
      "outputs": [
        {
          "internalType": "uint256",
          "name": "",
          "type": "uint256"
        },
        {
          "internalType": "address",
          "name": "",
          "type": "address"
        },
        {
          "internalType": "uint256",
          "name": "",
          "type": "uint256"
        }
      ],
      "stateMutability": "view",
      "type": "function"
    },
    {
      "inputs": [
        {
          "internalType": "address",
          "name": "newOwner",
          "type": "address"
        }
      ],
      "name": "transferOwnership",
      "outputs": [],
      "stateMutability": "nonpayable",
      "type": "function"
    },
    {
      "stateMutability": "payable",
      "type": "receive"
    }
  ],
  "bytecode": "0x608060405234801561001057600080fd5b506115a1806100206000396000f3fe60806040526004361061007f5760003560e01c8063affed0e01161004e578063affed0e014610160578063b69ef8a81461018b578063f2fde38b146101b6578063fc0c546a146101df57610086565b806301ffc9a71461008b5780631626ba7e146100c85780638da5cb5b146101055780639e5d4c491461013057610086565b3661008657005b600080fd5b34801561009757600080fd5b506100b260048036038101906100ad9190610b80565b61020c565b6040516100bf9190610bc8565b60405180910390f35b3480156100d457600080fd5b506100ef60048036038101906100ea9190610d5f565b6102de565b6040516100fc9190610dca565b60405180910390f35b34801561011157600080fd5b5061011a610317565b6040516101279190610e26565b60405180910390f35b61014a60048036038101906101459190610f03565b610428565b6040516101579190610ff6565b60405180910390f35b34801561016c57600080fd5b50610175610590565b6040516101829190611027565b60405180910390f35b34801561019757600080fd5b506101a0610596565b6040516101ad9190611027565b60405180910390f35b3480156101c257600080fd5b506101dd60048036038101906101d89190611042565b61059e565b005b3480156101eb57600080fd5b506101f4610778565b6040516102039392919061106f565b60405180910390f35b60007f01ffc9a7000000000000000000000000000000000000000000000000000000007bffffffffffffffffffffffffffffffffffffffffffffffffffffffff1916827bffffffffffffffffffffffffffffffffffffffffffffffffffffffff191614806102d757507f400a0398000000000000000000000000000000000000000000000000000000007bffffffffffffffffffffffffffffffffffffffffffffffffffffffff1916827bffffffffffffffffffffffffffffffffffffffffffffffffffffffff1916145b9050919050565b6000806102f36102ec610317565b8585610790565b9050801561030b57631626ba7e60e01b915050610311565b60009150505b92915050565b6000806000803073ffffffffffffffffffffffffffffffffffffffff1663fc0c546a6040518163ffffffff1660e01b8152600401606060405180830381865afa158015610368573d6000803e3d6000fd5b505050506040513d601f19601f8201168201806040525081019061038c91906110d0565b9250925092504683146103a55760009350505050610425565b8173ffffffffffffffffffffffffffffffffffffffff16636352211e826040518263ffffffff1660e01b81526004016103de9190611027565b602060405180830381865afa1580156103fb573d6000803e3d6000fd5b505050506040513d601f19601f8201168201806040525081019061041f9190611123565b93505050505b90565b6060610432610317565b73ffffffffffffffffffffffffffffffffffffffff163373ffffffffffffffffffffffffffffffffffffffff161461049f576040517f08c379a0000000000000000000000000000000000000000000000000000000008152600401610496906111ad565b60405180910390fd5b60008081546104ad906111fc565b91905081905550838573ffffffffffffffffffffffffffffffffffffffff167f47d99ad340f52da66535aff7e10da1ceb85a32bcbd9fa1c42314d194545e14d285856040516104fd929190611271565b60405180910390a360008573ffffffffffffffffffffffffffffffffffffffff1685858560405161052f9291906112c5565b60006040518083038185875af1925050503d806000811461056c576040519150601f19603f3d011682016040523d82523d6000602084013e610571565b606091505b5080935081925050508061058757815160208301fd5b50949350505050565b60005481565b600047905090565b6105a6610317565b73ffffffffffffffffffffffffffffffffffffffff163373ffffffffffffffffffffffffffffffffffffffff1614610613576040517f08c379a000000000000000000000000000000000000000000000000000000000815260040161060a906111ad565b60405180910390fd5b600073ffffffffffffffffffffffffffffffffffffffff168173ffffffffffffffffffffffffffffffffffffffff1603610682576040517f08c379a00000000000000000000000000000000000000000000000000000000081526004016106799061132a565b60405180910390fd5b60008060003073ffffffffffffffffffffffffffffffffffffffff1663fc0c546a6040518163ffffffff1660e01b8152600401606060405180830381865afa1580156106d2573d6000803e3d6000fd5b505050506040513d601f19601f820116820180604052508101906106f691906110d0565b9250925092508173ffffffffffffffffffffffffffffffffffffffff166323b872dd610720610317565b86846040518463ffffffff1660e01b81526004016107409392919061134a565b600060405180830381600087803b15801561075a57600080fd5b505af115801561076e573d6000803e3d6000fd5b5050505050505050565b6000806000610785610820565b925092509250909192565b600080600061079f85856108a0565b5091509150600060038111156107b8576107b7611381565b5b8160038111156107cb576107ca611381565b5b14801561080357508573ffffffffffffffffffffffffffffffffffffffff168273ffffffffffffffffffffffffffffffffffffffff16145b8061081557506108148686866108fc565b5b925050509392505050565b600080600080606067ffffffffffffffff81111561084157610840610c34565b5b6040519080825280601f01601f1916602001820160405280156108735781602001600182028036833780820191505090505b50905060ad604d60208301303c8080602001905181019061089491906113ee565b93509350935050909192565b600080600060418451036108e55760008060006020870151925060408701519150606087015160001a90506108d788828585610a20565b9550955095505050506108f5565b60006002855160001b9250925092505b9250925092565b60008060008573ffffffffffffffffffffffffffffffffffffffff16858560405160240161092b929190611450565b604051602081830303815290604052631626ba7e60e01b6020820180517bffffffffffffffffffffffffffffffffffffffffffffffffffffffff838183161783525050505060405161097d91906114b1565b600060405180830381855afa9150503d80600081146109b8576040519150601f19603f3d011682016040523d82523d6000602084013e6109bd565b606091505b50915091508180156109d157506020815110155b8015610a155750631626ba7e60e01b7bffffffffffffffffffffffffffffffffffffffffffffffffffffffff191681806020019051810190610a1391906114dd565b145b925050509392505050565b60008060007f7fffffffffffffffffffffffffffffff5d576e7357a4501ddfe92f46681b20a08460001c1115610a60576000600385925092509250610b0a565b600060018888888860405160008152602001604052604051610a859493929190611526565b6020604051602081039080840390855afa158015610aa7573d6000803e3d6000fd5b505050602060405103519050600073ffffffffffffffffffffffffffffffffffffffff168173ffffffffffffffffffffffffffffffffffffffff1603610afb57600060016000801b93509350935050610b0a565b8060008060001b935093509350505b9450945094915050565b6000604051905090565b600080fd5b600080fd5b60007fffffffff0000000000000000000000000000000000000000000000000000000082169050919050565b610b5d81610b28565b8114610b6857600080fd5b50565b600081359050610b7a81610b54565b92915050565b600060208284031215610b9657610b95610b1e565b5b6000610ba484828501610b6b565b91505092915050565b60008115159050919050565b610bc281610bad565b82525050565b6000602082019050610bdd6000830184610bb9565b92915050565b6000819050919050565b610bf681610be3565b8114610c0157600080fd5b50565b600081359050610c1381610bed565b92915050565b600080fd5b600080fd5b6000601f19601f8301169050919050565b7f4e487b7100000000000000000000000000000000000000000000000000000000600052604160045260246000fd5b610c6c82610c23565b810181811067ffffffffffffffff82111715610c8b57610c8a610c34565b5b80604052505050565b6000610c9e610b14565b9050610caa8282610c63565b919050565b600067ffffffffffffffff821115610cca57610cc9610c34565b5b610cd382610c23565b9050602081019050919050565b82818337600083830152505050565b6000610d02610cfd84610caf565b610c94565b905082815260208101848484011115610d1e57610d1d610c1e565b5b610d29848285610ce0565b509392505050565b600082601f830112610d4657610d45610c19565b5b8135610d56848260208601610cef565b91505092915050565b60008060408385031215610d7657610d75610b1e565b5b6000610d8485828601610c04565b925050602083013567ffffffffffffffff811115610da557610da4610b23565b5b610db185828601610d31565b9150509250929050565b610dc481610b28565b82525050565b6000602082019050610ddf6000830184610dbb565b92915050565b600073ffffffffffffffffffffffffffffffffffffffff82169050919050565b6000610e1082610de5565b9050919050565b610e2081610e05565b82525050565b6000602082019050610e3b6000830184610e17565b92915050565b610e4a81610e05565b8114610e5557600080fd5b50565b600081359050610e6781610e41565b92915050565b6000819050919050565b610e8081610e6d565b8114610e8b57600080fd5b50565b600081359050610e9d81610e77565b92915050565b600080fd5b600080fd5b60008083601f840112610ec357610ec2610c19565b5b8235905067ffffffffffffffff811115610ee057610edf610ea3565b5b602083019150836001820283011115610efc57610efb610ea8565b5b9250929050565b60008060008060608587031215610f1d57610f1c610b1e565b5b6000610f2b87828801610e58565b9450506020610f3c87828801610e8e565b935050604085013567ffffffffffffffff811115610f5d57610f5c610b23565b5b610f6987828801610ead565b925092505092959194509250565b600081519050919050565b600082825260208201905092915050565b60005b83811015610fb1578082015181840152602081019050610f96565b60008484015250505050565b6000610fc882610f77565b610fd28185610f82565b9350610fe2818560208601610f93565b610feb81610c23565b840191505092915050565b600060208201905081810360008301526110108184610fbd565b905092915050565b61102181610e6d565b82525050565b600060208201905061103c6000830184611018565b92915050565b60006020828403121561105857611057610b1e565b5b600061106684828501610e58565b91505092915050565b60006060820190506110846000830186611018565b6110916020830185610e17565b61109e6040830184611018565b949350505050565b6000815190506110b581610e77565b92915050565b6000815190506110ca81610e41565b92915050565b6000806000606084860312156110e9576110e8610b1e565b5b60006110f7868287016110a6565b9350506020611108868287016110bb565b9250506040611119868287016110a6565b9150509250925092565b60006020828403121561113957611138610b1e565b5b6000611147848285016110bb565b91505092915050565b600082825260208201905092915050565b7f4e6f7420746f6b656e206f776e65720000000000000000000000000000000000600082015250565b6000611197600f83611150565b91506111a282611161565b602082019050919050565b600060208201905081810360008301526111c68161118a565b9050919050565b7f4e487b7100000000000000000000000000000000000000000000000000000000600052601160045260246000fd5b600061120782610e6d565b91507fffffffffffffffffffffffffffffffffffffffffffffffffffffffffffffffff8203611239576112386111cd565b5b600182019050919050565b60006112508385610f82565b935061125d838584610ce0565b61126683610c23565b840190509392505050565b6000602082019050818103600083015261128c818486611244565b90509392505050565b600081905092915050565b60006112ac8385611295565b93506112b9838584610ce0565b82840190509392505050565b60006112d28284866112a0565b91508190509392505050565b7f4e6577206f776e657220697320746865207a65726f2061646472657373000000600082015250565b6000611314601d83611150565b915061131f826112de565b602082019050919050565b6000602082019050818103600083015261134381611307565b9050919050565b600060608201905061135f6000830186610e17565b61136c6020830185610e17565b6113796040830184611018565b949350505050565b7f4e487b7100000000000000000000000000000000000000000000000000000000600052602160045260246000fd5b60006113bb82610de5565b9050919050565b6113cb816113b0565b81146113d657600080fd5b50565b6000815190506113e8816113c2565b92915050565b60008060006060848603121561140757611406610b1e565b5b6000611415868287016110a6565b9350506020611426868287016113d9565b9250506040611437868287016110a6565b9150509250925092565b61144a81610be3565b82525050565b60006040820190506114656000830185611441565b81810360208301526114778184610fbd565b90509392505050565b600061148b82610f77565b6114958185611295565b93506114a5818560208601610f93565b80840191505092915050565b60006114bd8284611480565b915081905092915050565b6000815190506114d781610bed565b92915050565b6000602082840312156114f3576114f2610b1e565b5b6000611501848285016114c8565b91505092915050565b600060ff82169050919050565b6115208161150a565b82525050565b600060808201905061153b6000830187611441565b6115486020830186611517565b6115556040830185611441565b6115626060830184611441565b9594505050505056fea264697066735822122025d9f2795e220f6d185fd278c67689de86407d1f3d584fa6ce1a0af332de516164736f6c63430008140033",
  "linkReferences": {},
  "deployedLinkReferences": {}
}