{
  "_format": "hh-sol-artifact-1",
  "contractName": "TokenBoundAccount",
  "sourceName": "contracts/TokenBoundAccount.sol",
  "abi": [
    {
      "anonymous": false,
      "inputs": [
        {
          "indexed": true,
          "internalType": "address",
          "name": "target",
          "type": "address"
        },
        {
          "indexed": true,
          "internalType": "uint256",
          "name": "value",
          "type": "uint256"
        },
        {
          "indexed": false,
          "internalType": "bytes",
          "name": "data",
          "type": "bytes"
        }
      ],
      "name": "TransactionExecuted",
      "type": "event"
    },
    {
      "inputs": [
        {
          "internalType": "address",
          "name": "newOwner",
          "type": "address"
        }
      ],
      "name": "approveTransfer",
      "outputs": [],
      "stateMutability": "nonpayable",
      "type": "function"
    },
    {
      "inputs": [],
      "name": "balance",
      "outputs": [
        {
          "internalType": "uint256",
          "name": "",
          "type": "uint256"
        }
      ],
      "stateMutability": "view",
      "type": "function"
    },
    {
      "inputs": [
        {
          "internalType": "address",
          "name": "to",
          "type": "address"
        },
        {
          "internalType": "uint256",
          "name": "value",
          "type": "uint256"
        },
        {
          "internalType": "bytes",
          "name": "data",
          "type": "bytes"
        }
      ],
      "name": "executeCall",
      "outputs": [
        {
          "internalType": "bytes",
          "name": "result",
          "type": "bytes"
        }
      ],
      "stateMutability": "payable",
      "type": "function"
    },
    {
      "inputs": [
        {
          "internalType": "bytes32",
          "name": "hash",
          "type": "bytes32"
        },
        {
          "internalType": "bytes",
          "name": "signature",
          "type": "bytes"
        }
      ],
      "name": "isValidSignature",
      "outputs": [
        {
          "internalType": "bytes4",
          "name": "magicValue",
          "type": "bytes4"
        }
      ],
      "stateMutability": "view",
      "type": "function"
    },
    {
      "inputs": [],
      "name": "nonce",
      "outputs": [
        {
          "internalType": "uint256",
          "name": "",
          "type": "uint256"
        }
      ],
      "stateMutability": "view",
      "type": "function"
    },
    {
      "inputs": [],
      "name": "owner",
      "outputs": [
        {
          "internalType": "address",
          "name": "",
          "type": "address"
        }
      ],
      "stateMutability": "view",
      "type": "function"
    },
    {
      "inputs": [
        {
          "internalType": "bytes4",
          "name": "interfaceId",
          "type": "bytes4"
        }
      ],
      "name": "supportsInterface",
      "outputs": [
        {
          "internalType": "bool",
          "name": "",
          "type": "bool"
        }
      ],
      "stateMutability": "pure",
      "type": "function"
    },
    {
      "inputs": [],
      "name": "token",
      "outputs": [
        {
          "internalType": "uint256",
          "name": "",
          "type": "uint256"
        },
        {
          "internalType": "address",
          "name": "",
          "type": "address"
        },
        {
          "internalType": "uint256",
          "name": "",
          "type": "uint256"
        }
      ],
      "stateMutability": "view",
      "type": "function"
    },
    {
      "inputs": [
        {
          "internalType": "address",
          "name": "newOwner",
          "type": "address"
        }
      ],
      "name": "transferOwnership",
      "outputs": [],
      "stateMutability": "nonpayable",
      "type": "function"
    },
    {
      "stateMutability": "payable",
      "type": "receive"
    }
  ],
  "bytecode": "0x608060405234801561001057600080fd5b50611760806100206000396000f3fe60806040526004361061008a5760003560e01c80639e5d4c49116100595780639e5d4c4914610164578063affed0e014610194578063b69ef8a8146101bf578063f2fde38b146101ea578063fc0c546a1461021357610091565b806301ffc9a7146100965780631626ba7e146100d35780634355b9d2146101105780638da5cb5b1461013957610091565b3661009157005b600080fd5b3480156100a257600080fd5b506100bd60048036038101906100b89190610d16565b610240565b6040516100ca9190610d5e565b60405180910390f35b3480156100df57600080fd5b506100fa60048036038101906100f59190610ef5565b610312565b6040516101079190610f60565b60405180910390f35b34801561011c57600080fd5b5061013760048036038101906101329190610fd9565b61034b565b005b34801561014557600080fd5b5061014e6104ad565b60405161015b9190611015565b60405180910390f35b61017e600480360381019061017991906110c6565b6105be565b60405161018b91906111b9565b60405180910390f35b3480156101a057600080fd5b506101a9610726565b6040516101b691906111ea565b60405180910390f35b3480156101cb57600080fd5b506101d461072c565b6040516101e191906111ea565b60405180910390f35b3480156101f657600080fd5b50610211600480360381019061020c9190610fd9565b610734565b005b34801561021f57600080fd5b5061022861090e565b60405161023793929190611205565b60405180910390f35b60007f01ffc9a7000000000000000000000000000000000000000000000000000000007bffffffffffffffffffffffffffffffffffffffffffffffffffffffff1916827bffffffffffffffffffffffffffffffffffffffffffffffffffffffff1916148061030b57507f400a0398000000000000000000000000000000000000000000000000000000007bffffffffffffffffffffffffffffffffffffffffffffffffffffffff1916827bffffffffffffffffffffffffffffffffffffffffffffffffffffffff1916145b9050919050565b6000806103276103206104ad565b8585610926565b9050801561033f57631626ba7e60e01b915050610345565b60009150505b92915050565b6103536104ad565b73ffffffffffffffffffffffffffffffffffffffff163373ffffffffffffffffffffffffffffffffffffffff16146103c0576040517f08c379a00000000000000000000000000000000000000000000000000000000081526004016103b790611299565b60405180910390fd5b60008060003073ffffffffffffffffffffffffffffffffffffffff1663fc0c546a6040518163ffffffff1660e01b8152600401606060405180830381865afa158015610410573d6000803e3d6000fd5b505050506040513d601f19601f8201168201806040525081019061043491906112e3565b9250925092508173ffffffffffffffffffffffffffffffffffffffff1663095ea7b385836040518363ffffffff1660e01b8152600401610475929190611336565b600060405180830381600087803b15801561048f57600080fd5b505af11580156104a3573d6000803e3d6000fd5b5050505050505050565b6000806000803073ffffffffffffffffffffffffffffffffffffffff1663fc0c546a6040518163ffffffff1660e01b8152600401606060405180830381865afa1580156104fe573d6000803e3d6000fd5b505050506040513d601f19601f8201168201806040525081019061052291906112e3565b92509250925046831461053b57600093505050506105bb565b8173ffffffffffffffffffffffffffffffffffffffff16636352211e826040518263ffffffff1660e01b815260040161057491906111ea565b602060405180830381865afa158015610591573d6000803e3d6000fd5b505050506040513d601f19601f820116820180604052508101906105b5919061135f565b93505050505b90565b60606105c86104ad565b73ffffffffffffffffffffffffffffffffffffffff163373ffffffffffffffffffffffffffffffffffffffff1614610635576040517f08c379a000000000000000000000000000000000000000000000000000000000815260040161062c90611299565b60405180910390fd5b6000808154610643906113bb565b91905081905550838573ffffffffffffffffffffffffffffffffffffffff167f47d99ad340f52da66535aff7e10da1ceb85a32bcbd9fa1c42314d194545e14d28585604051610693929190611430565b60405180910390a360008573ffffffffffffffffffffffffffffffffffffffff168585856040516106c5929190611484565b60006040518083038185875af1925050503d8060008114610702576040519150601f19603f3d011682016040523d82523d6000602084013e610707565b606091505b5080935081925050508061071d57815160208301fd5b50949350505050565b60005481565b600047905090565b61073c6104ad565b73ffffffffffffffffffffffffffffffffffffffff163373ffffffffffffffffffffffffffffffffffffffff16146107a9576040517f08c379a00000000000000000000000000000000000000000000000000000000081526004016107a090611299565b60405180910390fd5b600073ffffffffffffffffffffffffffffffffffffffff168173ffffffffffffffffffffffffffffffffffffffff1603610818576040517f08c379a000000000000000000000000000000000000000000000000000000000815260040161080f906114e9565b60405180910390fd5b60008060003073ffffffffffffffffffffffffffffffffffffffff1663fc0c546a6040518163ffffffff1660e01b8152600401606060405180830381865afa158015610868573d6000803e3d6000fd5b505050506040513d601f19601f8201168201806040525081019061088c91906112e3565b9250925092508173ffffffffffffffffffffffffffffffffffffffff166323b872dd6108b66104ad565b86846040518463ffffffff1660e01b81526004016108d693929190611509565b600060405180830381600087803b1580156108f057600080fd5b505af1158015610904573d6000803e3d6000fd5b5050505050505050565b600080600061091b6109b6565b925092509250909192565b60008060006109358585610a36565b50915091506000600381111561094e5761094d611540565b5b81600381111561096157610960611540565b5b14801561099957508573ffffffffffffffffffffffffffffffffffffffff168273ffffffffffffffffffffffffffffffffffffffff16145b806109ab57506109aa868686610a92565b5b925050509392505050565b600080600080606067ffffffffffffffff8111156109d7576109d6610dca565b5b6040519080825280601f01601f191660200182016040528015610a095781602001600182028036833780820191505090505b50905060ad604d60208301303c80806020019051810190610a2a91906115ad565b93509350935050909192565b60008060006041845103610a7b5760008060006020870151925060408701519150606087015160001a9050610a6d88828585610bb6565b955095509550505050610a8b565b60006002855160001b9250925092505b9250925092565b60008060008573ffffffffffffffffffffffffffffffffffffffff168585604051602401610ac192919061160f565b604051602081830303815290604052631626ba7e60e01b6020820180517bffffffffffffffffffffffffffffffffffffffffffffffffffffffff8381831617835250505050604051610b139190611670565b600060405180830381855afa9150503d8060008114610b4e576040519150601f19603f3d011682016040523d82523d6000602084013e610b53565b606091505b5091509150818015610b6757506020815110155b8015610bab5750631626ba7e60e01b7bffffffffffffffffffffffffffffffffffffffffffffffffffffffff191681806020019051810190610ba9919061169c565b145b925050509392505050565b60008060007f7fffffffffffffffffffffffffffffff5d576e7357a4501ddfe92f46681b20a08460001c1115610bf6576000600385925092509250610ca0565b600060018888888860405160008152602001604052604051610c1b94939291906116e5565b6020604051602081039080840390855afa158015610c3d573d6000803e3d6000fd5b505050602060405103519050600073ffffffffffffffffffffffffffffffffffffffff168173ffffffffffffffffffffffffffffffffffffffff1603610c9157600060016000801b93509350935050610ca0565b8060008060001b935093509350505b9450945094915050565b6000604051905090565b600080fd5b600080fd5b60007fffffffff0000000000000000000000000000000000000000000000000000000082169050919050565b610cf381610cbe565b8114610cfe57600080fd5b50565b600081359050610d1081610cea565b92915050565b600060208284031215610d2c57610d2b610cb4565b5b6000610d3a84828501610d01565b91505092915050565b60008115159050919050565b610d5881610d43565b82525050565b6000602082019050610d736000830184610d4f565b92915050565b6000819050919050565b610d8c81610d79565b8114610d9757600080fd5b50565b600081359050610da981610d83565b92915050565b600080fd5b600080fd5b6000601f19601f8301169050919050565b7f4e487b7100000000000000000000000000000000000000000000000000000000600052604160045260246000fd5b610e0282610db9565b810181811067ffffffffffffffff82111715610e2157610e20610dca565b5b80604052505050565b6000610e34610caa565b9050610e408282610df9565b919050565b600067ffffffffffffffff821115610e6057610e5f610dca565b5b610e6982610db9565b9050602081019050919050565b82818337600083830152505050565b6000610e98610e9384610e45565b610e2a565b905082815260208101848484011115610eb457610eb3610db4565b5b610ebf848285610e76565b509392505050565b600082601f830112610edc57610edb610daf565b5b8135610eec848260208601610e85565b91505092915050565b60008060408385031215610f0c57610f0b610cb4565b5b6000610f1a85828601610d9a565b925050602083013567ffffffffffffffff811115610f3b57610f3a610cb9565b5b610f4785828601610ec7565b9150509250929050565b610f5a81610cbe565b82525050565b6000602082019050610f756000830184610f51565b92915050565b600073ffffffffffffffffffffffffffffffffffffffff82169050919050565b6000610fa682610f7b565b9050919050565b610fb681610f9b565b8114610fc157600080fd5b50565b600081359050610fd381610fad565b92915050565b600060208284031215610fef57610fee610cb4565b5b6000610ffd84828501610fc4565b91505092915050565b61100f81610f9b565b82525050565b600060208201905061102a6000830184611006565b92915050565b6000819050919050565b61104381611030565b811461104e57600080fd5b50565b6000813590506110608161103a565b92915050565b600080fd5b600080fd5b60008083601f84011261108657611085610daf565b5b8235905067ffffffffffffffff8111156110a3576110a2611066565b5b6020830191508360018202830111156110bf576110be61106b565b5b9250929050565b600080600080606085870312156110e0576110df610cb4565b5b60006110ee87828801610fc4565b94505060206110ff87828801611051565b935050604085013567ffffffffffffffff8111156111205761111f610cb9565b5b61112c87828801611070565b925092505092959194509250565b600081519050919050565b600082825260208201905092915050565b60005b83811015611174578082015181840152602081019050611159565b60008484015250505050565b600061118b8261113a565b6111958185611145565b93506111a5818560208601611156565b6111ae81610db9565b840191505092915050565b600060208201905081810360008301526111d38184611180565b905092915050565b6111e481611030565b82525050565b60006020820190506111ff60008301846111db565b92915050565b600060608201905061121a60008301866111db565b6112276020830185611006565b61123460408301846111db565b949350505050565b600082825260208201905092915050565b7f4e6f7420746f6b656e206f776e65720000000000000000000000000000000000600082015250565b6000611283600f8361123c565b915061128e8261124d565b602082019050919050565b600060208201905081810360008301526112b281611276565b9050919050565b6000815190506112c88161103a565b92915050565b6000815190506112dd81610fad565b92915050565b6000806000606084860312156112fc576112fb610cb4565b5b600061130a868287016112b9565b935050602061131b868287016112ce565b925050604061132c868287016112b9565b9150509250925092565b600060408201905061134b6000830185611006565b61135860208301846111db565b9392505050565b60006020828403121561137557611374610cb4565b5b6000611383848285016112ce565b91505092915050565b7f4e487b7100000000000000000000000000000000000000000000000000000000600052601160045260246000fd5b60006113c682611030565b91507fffffffffffffffffffffffffffffffffffffffffffffffffffffffffffffffff82036113f8576113f761138c565b5b600182019050919050565b600061140f8385611145565b935061141c838584610e76565b61142583610db9565b840190509392505050565b6000602082019050818103600083015261144b818486611403565b90509392505050565b600081905092915050565b600061146b8385611454565b9350611478838584610e76565b82840190509392505050565b600061149182848661145f565b91508190509392505050565b7f4e6577206f776e657220697320746865207a65726f2061646472657373000000600082015250565b60006114d3601d8361123c565b91506114de8261149d565b602082019050919050565b60006020820190508181036000830152611502816114c6565b9050919050565b600060608201905061151e6000830186611006565b61152b6020830185611006565b61153860408301846111db565b949350505050565b7f4e487b7100000000000000000000000000000000000000000000000000000000600052602160045260246000fd5b600061157a82610f7b565b9050919050565b61158a8161156f565b811461159557600080fd5b50565b6000815190506115a781611581565b92915050565b6000806000606084860312156115c6576115c5610cb4565b5b60006115d4868287016112b9565b93505060206115e586828701611598565b92505060406115f6868287016112b9565b9150509250925092565b61160981610d79565b82525050565b60006040820190506116246000830185611600565b81810360208301526116368184611180565b90509392505050565b600061164a8261113a565b6116548185611454565b9350611664818560208601611156565b80840191505092915050565b600061167c828461163f565b915081905092915050565b60008151905061169681610d83565b92915050565b6000602082840312156116b2576116b1610cb4565b5b60006116c084828501611687565b91505092915050565b600060ff82169050919050565b6116df816116c9565b82525050565b60006080820190506116fa6000830187611600565b61170760208301866116d6565b6117146040830185611600565b6117216060830184611600565b9594505050505056fea2646970667358221220662bbbf8926d76279bba2ecff22f7b315a0a395571058a543b9e03fa4f59a27b64736f6c63430008140033",
  "linkReferences": {},
  "deployedLinkReferences": {}
}